:020000040800F2
:10000000880600202902000865020008670200082F
:10001000690200086B0200086D0200080000000081
:100020000000000000000000000000006F02000857
:100030007102000800000000730200087502000849
:1000400077020008770200087702000877020008AC
:10005000770200087702000877020008770200089C
:10006000770200087702000877020008770200088C
:10007000770200087702000877020008770200087C
:10008000770200087702000877020008770200086C
:10009000770200087702000877020008770200085C
:1000A000770200087702000877020008770200084C
:1000B000770200087702000877020008770200083C
:1000C000770200087702000877020008770200082C
:1000D000770200087702000877020008770200081C
:1000E000770200087702000877020008770200080C
:1000F00077020008770200087702000877020008FC
:1001000077020008770200087702000877020008EB
:1001100077020008770200087702000877020008DB
:1001200077020008770200087702000877020008CB
:1001300077020008770200087702000877020008BB
:1001400077020008770200087702000877020008AB
:10015000770200087702000877020008770200089B
:10016000770200087702000877020008770200088B
:1001700077020008770200087702000800000000FC
:10018000770200087702000800F002F800F03CF85F
:100190000AA090E8000C82448344AAF10107DA45E2
:1001A00001D100F031F8AFF2090EBAE80F0013F0F8
:1001B000010F18BFFB1A43F0010318478804000021
:1001C000A8040000103A24BF78C878C1FAD85207B2
:1001D00024BF30C830C144BF04680C6070470000C1
:1001E0000023002400250026103A28BF78C1FBD840
:1001F000520728BF30C148BF0B6070471FB500F0E1
:100200001BFA1FBD10B510BD00F09BF81146FFF79B
:10021000F5FF00F0B3F900F0B9F803B4FFF7F2FF0F
:1002200003BC00F0C1F8000016481749174B99426B
:100230003CBF50F8042B41F8042BF8D314494FF07D
:1002400000028B4238BF43F8042BFAD3DFF8440096
:10025000016841F470010160BFF34F8FBFF36F8FEE
:100260000D480047FEE7FEE7FEE7FEE7FEE7FEE794
:10027000FEE7FEE7FEE7FEE708480949094A0A4BA0
:1002800070470000640600080000002010000020F5
:100290008806002088ED00E0890100088800002021
:1002A0008806002088020020880200200FB41CB5B8
:1002B000084B06AA7B4469460090059800F015F8A3
:1002C00004460020694600F023F820461CBC5DF877
:1002D00014FB000059000000704770477047000091
:1002E00001694A1C02610878704700B58FB0CDE9FA
:1002F00001310021059105497944CDE903101146EA
:10030000684600F00AF80FB000BD0000E5FFFFFFEF
:100310000A6802F8010B0A6070472DE9F0410646B1
:100320000024D6E90170F5688046304603E0414676
:10033000B847641C3046A8470028F8D12046BDE8DD
:10034000F081754600F02CF8AE460500694653462C
:1003500020F00700854618B020B5FFF78DFFBDE8F7
:1003600020404FF000064FF000074FF000084FF01C
:10037000000B21F00701AC46ACE8C009ACE8C009AD
:10038000ACE8C009ACE8C0098D46704710B504461A
:10039000AFF300802046BDE81040FFF73EBF0000ED
:1003A000004870472400002001491820ABBEFEE73A
:1003B00026000200704700001A48C06C40F0080098
:1003C0001849C8641848006820F47050164908603D
:1003D0000846006840F42050086013482030006848
:1003E00040F0EE601049203108600F480830006886
:1003F00040F470500C4908310860081D006820F472
:100400007050091D08600846006840F4A05008605C
:100410000548001D006820F060000349091D0860C0
:100420007047000000100240000C004800B50D4865
:10043000806D40F400300B4988650A4888300068B8
:1004400020F00C00C1F888000846D0F8880040F081
:100450000400C1F88800FFF7AFFF034800F010F870
:1004600000BD0000001002400044004064224243EE
:100470000723B2FBF3F100BF4A1E111EFCD17047E7
:10048000016821F001010160016821F01021016083
:10049000016821F400410160416821F4405141604C
:1004A00042F28D01C160016841F00C0101601E49FA
:1004B00088421BD1016841F020010160016821F0F0
:1004C00040010160016821F010010160016821F024
:1004D00080010160016821F480710160016821F0F0
:1004E00040010160016821F0010101600F4988426B
:1004F00009D1016A41F0400101620D49096841F0EA
:10050000C0010B4A1160016841F00101016000BFA8
:10051000C16901F400110029FAD000BFC16901F4DA
:1005200080010029FAD07047004C00400044004090
:1005300008380140F0B504460E46174600250CE089
:1005400000BFE06900F080000028FAD0705D2085CF
:100550004FF49670FFF78AFF6D1CBD42F0D300BFC9
:10056000E06900F040000028FAD0E06920F0400087
:10057000E061F0BD10B5FFF759FF10BDFFF7FAFFBE
:10058000FFF754FF32E01A48006800F0200088B1FD
:100590001748083000881749087017A11D48FFF751
:1005A00085FE1D49086008461A49026810481C3833
:1005B000FFF7C0FF19A11748FFF778FE164908603A
:1005C0000846144902680A481C38FFF7B3FF0020A8
:1005D0001849086004E017480068401C1549086085
:1005E000144800684CF250318842F4DBCBE700003D
:1005F0001C44004004000020736F6D657468696ED0
:1006000067207072657373656421207965740A0DC3
:100610000000000010000020080000206E6F7468C9
:10062000696E672070726573736564207965740AFA
:100630000D0000000C0000204FF04070E1EE100AA9
:100640007047000064060008000000201000000051
:10065000C40100087406000810000020780600009D
:10066000E0010008000000000000000000000000A1
:040670000000000086
:040000050800018965
:00000001FF
