:020000040800F2
:10000000C0060020310200086D0200086F020008DF
:100010007102000873020008750200080000000069
:10002000000000000000000000000000770200084F
:1000300079020008000000007B0200087D02000831
:100040007F0200087F0200087F0200087F0200088C
:100050007F0200087F0200087F0200087F0200087C
:100060007F0200087F0200087F0200087F0200086C
:100070007F0200087F0200087F0200087F0200085C
:100080007F0200087F0200087F0200087F0200084C
:100090007F0200087F0200087F0200087F0200083C
:1000A0007F0200087F0200087F0200087F0200082C
:1000B0007F0200087F0200087F0200087F0200081C
:1000C0007F0200087F0200087F0200087F0200080C
:1000D0007F0200087F0200087F0200087F020008FC
:1000E0007F0200087F0200087F0200087F020008EC
:1000F0007F0200087F0200087F0200087F020008DC
:100100007F0200087F0200087F0200087F020008CB
:100110007F0200087F0200087F0200087F020008BB
:100120007F0200087F0200087F0200087F020008AB
:100130007F0200087F0200087F0200087F0200089B
:100140007F0200087F0200087F0200087F0200088B
:100150007F0200087F0200087F0200087F0200087B
:100160007F0200087F0200087F0200087F0200086B
:100170007F0200087F0200087F02000800000000E4
:100180007F0200087F02000800F002F800F041F84A
:100190000AA090E8000C82448344AAF10107DA45E2
:1001A00001D100F036F8AFF2090EBAE80F0013F0F3
:1001B000010F18BFFB1A43F0010318470C11000090
:1001C0002C110000103A24BF78C878C1FAD8520721
:1001D00024BF30C830C144BF04680C6070470000C1
:1001E0000023002400250026103A28BF78C1FBD840
:1001F000520728BF30C148BF0B607047642900F028
:10020000A380002070471FB501F058F81FBD10B53E
:1002100010BD00F04EF91146FFF7F5FF00F082FE29
:1002200000F06CF903B4FFF7F2FF03BC00F074F9BF
:1002300016481749174B99423CBF50F8042B41F818
:10024000042BF8D314494FF000028B4238BF43F817
:10025000042BFAD3DFF84400016841F47001016017
:10026000BFF34F8FBFF36F8F0D480047FEE7FEE7E8
:10027000FEE7FEE7FEE7FEE7FEE7FEE7FEE7FEE756
:1002800008480949094A0A4B70470000E81200086B
:10029000000000204C000020C006002088ED00E097
:1002A00089010008C0000020C0060020C002002014
:1002B000C00200200FB41CB5084B06AA7B44694657
:1002C0000090059800F0DDF804460020694600F033
:1002D000EBF820461CBC5DF814FB0000E9010000AF
:1002E0002DE9F0410E460446002020622046E168D8
:1002F000884730B3252805D0D4E901219047206AEA
:10030000401CF2E7E168204600278847050018D026
:10031000A5F14100192802D820354FF40067324674
:10032000294620462760FFF769FF40B1012804D025
:10033000F61D26F007060836D8E7361DD6E728460C
:10034000DAE7206ABDE8F0812DE9F0410646002495
:1003500010687529314616A510D0AFF3008000282B
:1003600002DA404213A507E031688A0701D512A5D9
:1003700002E0490704D511A5012401E0AFF3008094
:1003800000210A2206F1240709E0B0FBF2FCB0FBD1
:10039000F2F302FB1C00303078541846491C002848
:1003A000F3D123462A463046BDE8F04100F00BB8B1
:1003B000000000002D0000002B00000020000000C5
:1003C0007047704770472DE9F0470D4699469246B1
:1003D000044600F124080168880604D5E06921F08C
:1003E0001001216000E00120A84201DD471B00E070
:1003F0000027A1697A1902EB0900081AA061207888
:10040000C00602D42046AFF30080002608E0D4E9FD
:1004100001211AF806009047206A401C761C2062D1
:100420004E45F4DB2078C0060AD52046AFF30080A5
:1004300006E0D4E9012130209047206A401C206268
:10044000381EA7F10107F4DC07E0D4E9012118F810
:1004500005009047206A401C2062281EA5F1010576
:10046000F3DC2046AFF300802078000602D502209E
:10047000BDE8F0870120FBE701694A1C02610878AA
:10048000704700B58FB0CDE90131002105910549D4
:100490007944CDE9031011466846FFF721FF0FB0FC
:1004A00000BD0000E5FFFFFF0A6802F8010B0A60CB
:1004B0007047754600F02CF8AE4605006946534675
:1004C00020F00700854618B020B5FFF7D9FEBDE83B
:1004D00020404FF000064FF000074FF000084FF0AB
:1004E000000B21F00701AC46ACE8C009ACE8C0093C
:1004F000ACE8C009ACE8C0098D46704710B50446A9
:10050000AFF300802046BDE81040FFF78BBE00002F
:10051000004870476000002001491820ABBEFEE78C
:1005200026000200704700005E49096821F00701BB
:100530005C4A11601146096841F0020111605A4994
:10054000096841F48071584A116000BF5649096832
:1005500001F480610029F9D010205349496821F045
:10056000F851514A51601146496841EA00615160B1
:100570001146096821F08071116000BF4A4909687D
:1005800001F00071B1F1007FF8D04749C96821F04E
:100590000301454AD1601146C96841F00201D160AA
:1005A0001146C96821F4FE4141F4A051D1601146C1
:1005B000C96821F0700141F01001D1601146C9688D
:1005C00021F0C061D1601146C96841F08071D160ED
:1005D0001146096841F08071116000BF3249096815
:1005E00001F000710029F9D02F49896821F0030139
:1005F0002D4A91601146896841F00301916000BF66
:100600002949896801F00C010C29F9D1264989682A
:1006100021F0F001244A91601146896821F4E061DB
:1006200091601146896821F4605191601146096812
:1006300021F08061116000BF1B49096801F08061F1
:10064000B1F1806FF8D01849096921F4FE41164ACA
:1006500011611146096941F4C051116111460969DE
:1006600041F4003111611146096941F48031116191
:100670001146096841F08061116000BF0A490968AC
:1006800001F080610029F9D007498831096821F417
:100690004001054AC2F888101146096E41F4001164
:1006A0001166704700200240001002401A48C06CDA
:1006B00040F008001849C8641848006820F47050D9
:1006C000164908600846006840F420500860134846
:1006D0002030006840F0EE601049203108600F487B
:1006E0000830006840F470500C4908310860081D5B
:1006F000006820F47050091D08600846006840F446
:10070000A05008600548001D006820F06000034903
:10071000091D08607047000000100240000C0048EE
:1007200000B50D48806D40F400300B4988650A48DB
:100730008830006820F00C00C1F888000846D0F826
:10074000880040F00400C1F88800FFF7AFFF0348BD
:1007500000F010F800BD000000100240004400400E
:10076000642242430723B2FBF3F100BF4A1E111E6D
:10077000FCD17047016821F001010160016821F09E
:1007800010210160016821F400410160416821F4F9
:100790004051416042F28D01C160016841F00C019D
:1007A00001601E4988421BD1016841F020010160AF
:1007B000016821F040010160016821F01001016031
:1007C000016821F080010160016821F480710160FD
:1007D000016821F040010160016821F00101016020
:1007E0000F49884209D1016A41F0400101620D4977
:1007F000096841F0C0010B4A1160016841F0010134
:10080000016000BFC16901F400110029FAD000BFE6
:10081000C16901F480010029FAD07047004C004002
:100820000044004008380140014600BFC86900F09C
:1008300020000028FAD0888CC0B27047F0B504467A
:100840000E46174600250CE000BFE06900F080006E
:100850000028FAD0705D20854FF49670FFF780FF76
:100860006D1CBD42F0D300BFE06900F040000028DD
:10087000FAD0E06920F04000E061F0BD10B53248E8
:1008800032A102683948FFF715FD3949086008466A
:10089000364902683748FFF7D1FF1CE036A000F068
:1008A00071FB3448FFF7C0FF4249087008460078E2
:1008B00059280FD0084600784E280BD008460078FB
:1008C000792807D0084600786E2803D03AA000F0B7
:1008D00059FB00E000E0E1E700BF36480078592806
:1008E00003D03448007879281BD13CA000F04AFBA3
:1008F0002048FFF799FF30383C4908601D48FFF752
:1009000093FF30383A4908603848006800EB8000AF
:10091000096801EB40000C49086036A000F032FB8A
:1009200002E03DA000F02EFB074841A102680F48FD
:10093000FFF7C0FC0E49086008460C4902680D48E4
:10094000FFF77CFF10BD0000240000200A0D437556
:100950007272656E742053657420506F696E7420D6
:1009600069733A2025640A0D000000004C00002045
:100970000800002000440040576F756C6420796FB8
:1009800075206C696B6520746F206368616E6765A4
:10099000207468652053657420506F696E743F0A37
:1009A0000D59202D205965732009204E202D204EF1
:1009B0006F0A0D0010000020496E707574206E6F74
:1009C00074207265636F676E697A65642C20747237
:1009D0007920616761696E0A0D0000004E6577201D
:1009E00073657420706F696E743A200034000020C3
:1009F000380000200A0D53657420506F696E742012
:100A00005375636365737366756C6C792063686195
:100A10006E676564210A0D000A0D4B656570696E8D
:100A200067206F6C642076616C75650A0D000000AC
:100A300053657420506F696E743A2025640A0D0066
:100A400010B52F48006800F02000002857D02C482F
:100A5000083000882B49087008460078512831D0AA
:100A600010DC3D2832D006DC0D2836D02B282ED0C5
:100A70002D283FD12EE0452814D0482816D05028E4
:100A800038D116E0702815D006DC532816D065281A
:100A900007D068282ED108E0712812D0732829D1F8
:100AA0000BE000BF00F08EF828E000BF00F0ACF8CB
:100AB00024E000BF00F07CFA20E000BFFFF7DEFE7C
:100AC0001CE000BF01201049087017E000BF00F0D3
:100AD00091F913E000F03EF810E00CA000F052FA9B
:100AE00010480078C04308B1012000E000200D4903
:100AF000087003E00CA000F045FA00BF00BF10BD75
:100B00001C44004010000020000000205072696E5C
:100B100074206563686F206368616E676564212077
:100B20000A0D000001000020496E707574206E6F80
:100B300074207265636F676E697A65642C207072C9
:100B4000657373204820666F722048656C700A0DCB
:100B50000000000010B50D48006864380B490860BB
:100B600008460068002801DA00200860074808A14C
:100B700002681148FFF79EFB1049086008460E49BD
:100B800002680F48FFF75AFE10BD00002400002045
:100B900044656372656173696E67205365742050A4
:100BA0006F696E74210A0D204E65772056616C7551
:100BB000653A2025640A0D004C0000200800002042
:100BC0000044004010B5074807A102680B48FFF732
:100BD00071FB0B4908600846084902680948FFF79D
:100BE0002DFE10BD1400002043757272656E7420D6
:100BF0004563686F3A2025640A0D00004C00002010
:100C0000080000200044004010B50CA000F0BAF924
:100C100011A000F0B7F916A000F0B4F91BA000F085
:100C2000B1F923A000F0AEF92AA000F0ABF932A090
:100C300000F0A8F939A000F0A5F910BD0A0D48652B
:100C40006C7020627574746F6E2073656C6563746C
:100C50006564210A0D0000005072657373204820FE
:100C60002D20666F722048656C700A0D0000000030
:100C700050726573732045202D20746F2064697352
:100C8000706C6179204563686F0A0D00507265735E
:100C9000732050202D20746F205072696E74206371
:100CA000757272656E742076616C7565730A0D00DD
:100CB00050726573732053202D20746F2073656C00
:100CC000656374206E65772053657420506F696E7C
:100CD000740A0D005072657373202B202D20746FE1
:100CE00020496E6372656173652053657420506F8F
:100CF000696E740A0D0000005072657373202D2018
:100D00002D20746F2044656372656173652053659F
:100D10007420506F696E740A0D0000005072657384
:100D2000732051202D20746F2051756974210A0D94
:100D30000000000010B52648006800F001000028FF
:100D400044D024480068401C22490860096809B959
:100D5000012100E00021084601EBD0714910A0EB11
:100D60004101012905D11A48243000681A49086058
:100D70001AE0002017490860154824300068174918
:100D800008600846006814490968401A00EE100A15
:100D9000B8EEC00A124880ED000A90ED000ABDEEE0
:100DA000C00A104880ED000A0F48007870B10F4863
:100DB0000068401C0D490860084600680C498842DC
:100DC00004DB002009490860FFF7FCFE10BD0000AD
:100DD00010080040440000203C000020400000209B
:100DE0004800002014000020010000200400002022
:100DF000A025260010B50E48006864300C49086034
:100E000008460068B0F57A7F02DD4FF47A7008601A
:100E1000074808A102681148FFF74CFA104908601A
:100E200008460E4902680F48FFF708FD10BD000094
:100E300024000020496E6372656173696E672053F8
:100E4000657420506F696E74210A0D204E657720FD
:100E500056616C75653A2025640A0D004C0000202F
:100E6000080000200044004010B5FFF75DFBFFF7CD
:100E700057FC00F027F900F087F900F0DBF90020BB
:100E80000F4908700F4908700F4908600F49086042
:100E90004FF6FF700E49086000200E4908600E49A9
:100EA00008600E4908600E4908600E4908600E4946
:100EB000086032200D4908600DA000F063F810BDF5
:100EC0000000002001000020140000201800002075
:100ED0001C00002020000020280000202C00002002
:100EE00030000020440000204000002024000020AA
:100EF0000A0D0A0A0A0A0A0A0A0A0A0A0A0A0A0A4F
:100F00000A0A0A0A0A0A0A0A0A0A0A0A535441522F
:100F100054494E472050524F4752414D21210A0D0E
:100F20000000000010B5FFF79FFF03E0FFF788FD0A
:100F3000FFF700FF044800780028F7D003A000F076
:100F400021F8002010BD0000000000200A0D51759E
:100F5000697420627574746F6E20686173206265B5
:100F6000656E20707265737365642121200A0D45DA
:100F7000786974696E672070726F6772616D2E2E6A
:100F80002E00000010B5044621460648FFF792F9EE
:100F9000054908600846034902680448FFF74EFC0B
:100FA00010BD00004C00002008000020004400405C
:100FB00008B51BA0FFF7E6FF1F4803681F4820A1E4
:100FC00002682848FFF776F927490860084625494E
:100FD00002682648FFF732FC25480368254826A109
:100FE00002682048FFF766F91F49086008461D4956
:100FF00002681E48FFF722FC294800680090294833
:101000000368294829A102681648FFF753F91649D1
:1010100008600846134902681448FFF70FFC08BD32
:101020000A0D5072696E74696E672056616C756541
:1010300073210A0D0000000014000020240000208D
:1010400053657420506F696E74203A20256420091E
:1010500043757272656E74204563686F3A2025642B
:101060000A0D00004C000020080000200044004051
:10107000180000201C0000204D696E206469737404
:10108000616E63653A20256420094D6178206469AA
:101090007374616E63653A2025640A0D00000000D8
:1010A000300000202C000020280000206B503A2047
:1010B000256420096B493A202564096B443A2025B0
:1010C000640A0D002B48C06C40F001002949C86437
:1010D00040F602004FF09041086027480862800601
:1010E000C06820F44050C8602248806D40F008007D
:1010F000204988650120214908602148091D0860B0
:1011000040F294701D490C3108601E48006840F0A0
:1011100001001C49086019481038006840F0700050
:101120001649103908600846006840F00800086059
:1011300012482838006840F08000104928390860BB
:101140000E480838006840F003000C490839086070
:101150000A482838006840F001000849283908602A
:1011600006481438006840F001000449143908604A
:10117000704700000010024012111100280C0040BE
:10118000A0860100180800402748C06C40F002000B
:101190002549C8642548006820F440502349086068
:1011A0000846006840F4005008602048203000687D
:1011B00040F000701D49203108601B48806D40F0F0
:1011C00004001949886550201949086018481438E6
:1011D000006840F0010016491439086014480838C6
:1011E000006800201249083908601148103800686A
:1011F00040F001000E49103908600D4808380068B9
:1012000040F00A000A49083908600846006840F0C2
:101210000100086006482838006840F001000449D1
:1012200028390860704700000010024000040048A0
:10123000280800401F48C06C40F001001D49C864E8
:1012400040F602004FF0904108601B48086280069B
:10125000C06820F44050C8601648806D40F001001E
:10126000144988654F20890488624FF6DC70C86293
:101270000A2048634007806940F070008861084692
:10128000806940F0080088610846006840F08000EE
:1012900008600846006A40F00300086208460068DB
:1012A00040F0010008600846406940F001004861D4
:1012B0007047000000100240121111004FF0407002
:1012C000E1EE100A70470000E8120008000000205C
:1012D0004C000000C4010008341300084C0000203A
:1012E00074060000E001000800000000000000009B
:1012F00000000000000000000000000000000000EE
:1013000000000000000000000000000000000000DD
:1013100000000000000000000000000000000000CD
:1013200000000000000000000000000000000000BD
:0413300000000000B9
:040000050800018965
:00000001FF
